:100000000C9456000C947A010C94A2010C94CB0130
:100010000C94F8010C9468000C9468000C9468002F
:100020000C9468000C9468000C9468000C946800B0
:100030000C9468000C9468000C9468000C946800A0
:100040000C9468000C9468000C9468000C94680090
:100050000C9468000C9468000C9468000C942102C5
:100060000C9468000C9468000C9468000C94680070
:100070000C9468000C9468000C9468000C94680060
:100080000C9468000C9468000C9468000C94680050
:100090000C9468000C9468000C9468000C94680040
:1000A0000C9468000C9468000C94660111241FBE27
:1000B000CFEFDAE0DEBFCDBF21E0A0E0B1E001C0CC
:1000C0001D92AC30B207E1F70E9470030C94D80384
:1000D0000C94000020E030E02817390749F0EFECDD
:1000E000F7E03197F1F700C000002F5F3F4FF4CFEA
:1000F00008952D9A85E090E00E946A002D9885E091
:1001000090E00C946A0084B1806384B984B18F60FC
:1001100084B982E390E00E946A0085B18F7C85B942
:1001200085B1837F85B985B1836085B90E947900E7
:1001300085B1837F85B985B1836085B90E947900D7
:1001400085B1837F85B985B1836085B90E947900C7
:1001500085B1827F85B9299A0E94790085B1827F15
:1001600085B9299A0E9479002B9A85B1887F85B933
:100170000E94790085B1807F85B90E9479002B9A11
:1001800085B1887F85B90E94790085B1807F85B966
:100190000E94790085B1817F85B9289A0E947900F3
:1001A00085B1807F85B90E94790085B1837F85B94B
:1001B00085B1836085B90E94790085B1807F85B95A
:1001C0000E94790085B18F6085B90C947900CF9336
:1001D000C82F2C9A87FF02C02B9A01C02B98C6FF0C
:1001E00002C02A9A01C02A98C5FF02C0299A01C0FC
:1001F0002998C4FF02C0289A01C028980E9479005B
:1002000081E090E00E946A00C3FF02C02B9A01C007
:100210002B98C2FF02C02A9A01C02A98C1FF02C0CF
:10022000299A01C02998C0FF02C0289A01C02898C5
:100230000E94790081E090E0CF910C946A00CF9306
:10024000C82F2C9887FF02C02B9A01C02B98C6FF9D
:1002500002C02A9A01C02A98C5FF02C0299A01C08B
:100260002998C4FF02C0289A01C028980E947900EA
:1002700081E090E00E946A00C3FF02C02B9A01C097
:100280002B98C2FF02C02A9A01C02A98C1FF02C05F
:10029000299A01C02998C0FF02C0289A01C0289855
:1002A0000E94790081E090E0CF910C946A00CF9396
:1002B000DF93EC018991882319F00E94E700FACFBF
:1002C000DF91CF91089580580C941F011F920F92D7
:1002D0000FB60F9211244698479885B1805885B97A
:1002E0002FEF84E39CE0215080409040E1F700C074
:1002F0000000F3CF1F920F920FB60F9211248F932D
:100300009F9380910901843640F4909108019F5F8A
:10031000909308018F5F8093090181E0809305012C
:100320008093000185B5836085BD8CEB92E090934E
:100330000201809301019F918F910F900FBE0F904A
:100340001F9018951F920F920FB60F9211248F9342
:100350009F9380910901882341F090910801915069
:100360009093080181508093090182E080930501F8
:1003700081E08093000185B5836085BD8CEB92E0C0
:1003800090930201809301019F918F910F900FBE76
:100390000F901F9018951F920F920FB60F92112475
:1003A0008F939F9380910701843640F490910601CA
:1003B0009F5F909306018F5F8093070183E0809396
:1003C000050181E08093000185B5836085BD1092B1
:1003D0000401109203018CEB92E090930201809350
:1003E00001019F918F910F900FBE0F901F90189554
:1003F0001F920F920FB60F9211248F939F938091AB
:100400000701882341F090910601915090930601D5
:1004100081508093070184E08093050181E08093FF
:10042000000185B5836085BD8CEB92E0909302015D
:10043000809301019F918F910F900FBE0F901F909D
:1004400018951F920F920FB60F9211242F933F937E
:100450008F939F9380910301909104010196909353
:10046000040180930301489929B120910101309141
:1004700002012817390708F054C080910501823025
:10048000B1F018F4813031F03DC08330F9F08430A0
:1004900051F138C048993BC0809109018436B8F5C4
:1004A000909108019F5F909308018F5F0CC049995C
:1004B0002EC080910901882351F19091080191503B
:1004C0009093080181508093090121C04A991FC06F
:1004D000809107018436D8F4909106019F5F909334
:1004E00006018F5F0CC04B9912C0809107018823D1
:1004F00071F0909106019150909306018150809384
:10050000070105C085B58C7F85BD1092050182E38A
:1005100090E09093020180930101109204011092E7
:10052000030183E886BD9F918F913F912F910F909A
:100530000FBE0F901F901895E1E6F0E080E88083F1
:1005400081E0808385B7806885BF85B7806885BF77
:100550000E9483008CE00E941F01279A3F9A269AEE
:100560006E98849880988AB1807F8AB98BB18F60A9
:100570008BB9EFE7F0E0808181608083EEE7F0E007
:10058000808180618083E0ECF0E080818260808304
:10059000808181608083A3ECB0E08C918D7F8C930F
:1005A0008C918E7F8C938081806880838081806431
:1005B00080838081806280838081806180838C9150
:1005C00080688C93EAE7F0E080818F7780838C915C
:1005D00088608C93EBE7F0E080818064808388EC16
:1005E0008093D100E1ECF0E08081877F808380817F
:1005F0008B7F808380818260808380818160808323
:10060000EEE6F0E080818160808383E886BDE9E6E4
:10061000F0E0808182608083E89A808188608083B6
:10062000E99A808180628083EA9A808180688083F1
:10063000EB9A789408958091C100877F8093C100E0
:100640008091C1008B7F8093C1008091C1008D7F1C
:100650008093C1008091C1008E7F8093C100809102
:100660007C008F7780937C0080917C0080648093F5
:100670007C0080917C00807E80937C0080917B0058
:100680008F7D80937B0080917A00866C80937A00C6
:1006900080917A0086FDFCCF80917800809179006E
:1006A00090917A009F7790937A0090917C0094606B
:1006B00090937C009091C100977F9093C10090919E
:1006C000C1009B7F9093C1009091C1009260909374
:1006D000C1009091C10091609093C1008370089512
:1006E000CF93DF93CDB7DEB764970FB6F894DEBF34
:1006F0000FBECDBF0E949C020E941B0390E090930E
:100700000B0180930A0185EC0E941F014AE0BE01A3
:100710006F5F7F4F80910A0190910B010E94A303AC
:10072000CE0101960E94570180910801853618F488
:10073000880F8093CF00809106018536E8F6880FF8
:100740008093D000D9CFBB274A3031F4992322F4CB
:10075000BDE2909581959F4F0C94AF03BB27FB01A1
:100760005527AA27880F991FAA1FA41710F0A41BAA
:1007700083955051B9F7A05DAA3308F0A95DA19304
:10078000009779F7B111B1931192CB010C94C80382
:10079000DC01FC01672F71917723E1F7329704C0E8
:1007A0007C916D9370836291AE17BF07C8F3089573
:0407B000F894FFCFEB
:00000001FF
