:100000000C9456000C9498010C94C4010C94F101CA
:100010000C941E020C9473000C9473000C947300E7
:100020000C9473000C9473000C9473000C94730084
:100030000C9473000C9473000C9473000C94730074
:100040000C9473000C9473000C9473000C94730064
:100050000C9473000C9473000C9473000C944B027A
:100060000C9473000C9473000C9473000C94730044
:100070000C9473000C9473000C9473000C94730034
:100080000C9473000C9473000C9473000C94730024
:100090000C9473000C9473000C9473000C94730014
:1000A0000C9473000C9473000C947A0111241FBEFD
:1000B000CFEFDAE0DEBFCDBF11E0A0E0B1E0E4EFCA
:1000C000FBE002C005900D92A830B107D9F721E0FE
:1000D000A8E0B1E001C01D92A631B207E1F70E948D
:1000E0003C040C94F8050C94000020E030E0281744
:1000F000390749F0EFECF7E03197F1F700C0000065
:100100002F5F3F4FF4CF08952D9A85E090E00E9435
:1001100075002D9885E090E00C9475002D9A87EC81
:1001200090E00197F1F700C000002D9887EC90E077
:100130000197F1F700C0000008952D9A81E090E04A
:100140000E9475002D9881E090E00C94750084B1B8
:10015000806384B984B18F6084B982E390E00E94A7
:10016000750085B18F7C85B985B1837F85B985B1EF
:10017000836085B90E94840085B1837F85B985B18C
:10018000836085B90E94840085B1837F85B985B17C
:10019000836085B90E94840085B1827F85B9299AE0
:1001A0000E94840085B1827F85B9299A0E948400CB
:1001B0002B9A85B1887F85B90E94840085B1807FA4
:1001C00085B90E9484002B9A85B1887F85B90E94E9
:1001D000840085B1807F85B90E94840085B1817FCC
:1001E00085B9289A0E94840085B1807F85B90E94D4
:1001F000840085B1837F85B985B1836085B90E940C
:10020000840085B1807F85B90E94840085B18F60AC
:1002100085B90C948400CF93C82F2C9A87FF02C015
:100220002B9A01C02B98C6FF02C02A9A01C02A98B7
:10023000C5FF02C0299A01C02998C4FF02C0289AAC
:1002400001C028980E948E00C3FF02C02B9A01C0F3
:100250002B98C2FF02C02A9A01C02A98C1FF02C08F
:10026000299A01C02998C0FF02C0289A01C0289885
:10027000CF910C948E00CF93C82F2C9887FF02C08B
:100280002B9A01C02B98C6FF02C02A9A01C02A9857
:10029000C5FF02C0299A01C02998C4FF02C0289A4C
:1002A00001C028980E949D00C3FF02C02B9A01C084
:1002B0002B98C2FF02C02A9A01C02A98C1FF02C02F
:1002C000299A01C02998C0FF02C0289A01C0289825
:1002D000CF910C949D00CF93DF93EC0189918823FB
:1002E00019F00E940B01FACFDF91CF910895805849
:1002F0000C943B011F920F920FB60F92112481E0D4
:100300000E943B014698479880E80E943B0180E0AC
:1003100091E00E946B0185B1805885B92FEF84E38D
:100320009CE0215080409040E1F700C00000F3CFF6
:100330001F920F920FB60F9211248F939F9380916B
:100340001501843640F4909114019F5F909314013D
:100350008F5F8093150181E08093110180930C01E0
:100360001092100110920F018CEB92E090930E010D
:1003700080930D0185B5836085BD9F918F910F900E
:100380000FBE0F901F9018951F920F920FB60F92ED
:1003900011248F939F9380911501882341F09091B0
:1003A000140191509093140181508093150182E0C3
:1003B0008093110181E080930C0110921001109242
:1003C0000F018CEB92E090930E0180930D0185B5A7
:1003D000836085BD9F918F910F900FBE0F901F90EE
:1003E00018951F920F920FB60F9211248F939F931F
:1003F00080911301843640F4909112019F5F909395
:1004000012018F5F8093130183E08093110181E0DB
:1004100080930C011092100110920F018CEB92E06E
:1004200090930E0180930D0185B5836085BD9F91EA
:100430008F910F900FBE0F901F9018951F920F92E3
:100440000FB60F9211248F939F93809113018823ED
:1004500041F090911201915090931201815080933C
:10046000130184E08093110181E080930C011092CC
:10047000100110920F018CEB92E090930E0180938B
:100480000D0185B5836085BD9F918F910F900FBE43
:100490000F901F9018951F920F920FB60F92112474
:1004A0002F933F938F939F9380910F019091100111
:1004B00001969093100180930F0120910D013091CE
:1004C0000E012817390708F054C0809111018230BD
:1004D000B1F018F4813031F03DC08330F9F0843050
:1004E00051F138C048993BC0809115018436B8F568
:1004F000909114019F5F909314018F5F0CC04999F4
:100500002EC080911501882351F1909114019150D2
:100510009093140181508093150121C04A991FC006
:10052000809113018436D8F4909112019F5F9093CB
:1005300012018F5F0CC04B9912C080911301882368
:1005400071F090911201915090931201815080931B
:10055000130105C085B58C7F85BD1092110182E322
:1005600090E090930E0180930D0110921001109273
:100570000F01489989B183E886BD9F918F913F9182
:100580002F910F900FBE0F901F901895E1E6F0E0AD
:1005900080E8808381E0808385B7806885BF85B7E8
:1005A000806885BF0E94A7008CE00E943B01279ACB
:1005B0002F9A3F9A269A6E98849880988AB1807F65
:1005C0008AB98BB18F608BB9EFE7F0E080818160F1
:1005D0008083EEE7F0E0808180618083E0ECF0E0F2
:1005E000808182608083808181608083A3ECB0E021
:1005F0008C918D7F8C938C918E7F8C938081806881
:100600008083808180648083808180628083808118
:10061000806180838C9180648C938C9180688C93B2
:10062000EAE7F0E080818F7780838C9188608C93FB
:10063000EBE7F0E0808180648083ECE7F0E080818C
:100640008460808388EC8093D100E1ECF0E08081CD
:10065000877F808380818B7F80838081826080839D
:10066000808181608083EEE6F0E08081816080831C
:1006700083E886BDE9E6F0E0808182608083E89AC5
:10068000808188608083E99A808180628083EA9A91
:10069000808180688083EB9A789408958091C1006E
:1006A000877F8093C1008091C1008B7F8093C100C0
:1006B0008091C1008D7F8093C1008091C1008E7FA9
:1006C0008093C10080917C008F7780937C00809123
:1006D0007C00806480937C0080917C00807E80938D
:1006E0007C0080917B008F7D80937B0080917A00DD
:1006F000866C80937A0080917A0086FDFCCF6091B1
:10070000780080917900837070E0782B80E090E031
:100710000E94C8042AE137E64CE150E40E942E050D
:1007200020917A002F7720937A0020917C0024601A
:1007300020937C002091C100277F2093C10020914D
:10074000C1002B7F2093C1002091C1002260209323
:10075000C1002091C10021602093C1000E94990432
:10076000CB0108956F927F928F929F92AF92BF922A
:10077000CF92DF92EF92FF921F93CF93DF93CDB78B
:10078000DEB764970FB6F894DEBF0FBECDBF5C0135
:10079000FC01C080D18024E6E22EF12C10E83AE082
:1007A000832E912C812F0E943B01C601B7010E942C
:1007B0007104662E660F77084AE0BE016F5F7F4FB7
:1007C000C3010E94C305CE0101960E946B016E9C7D
:1007D000C0016F9C900D7E9C900D1124C81AD90AFF
:1007E0001F5FC701B4010E9471047B011338D1F669
:1007F000F501A280B38084E6E82EF12C1DE89AE092
:10080000892E912C812F0E943B01C501B7010E94C6
:100810007104C62E660FDD084AE0BE016F5F7F4F90
:10082000C6010E94C305CE0101960E946B01CE9CB9
:10083000C001CF9C900DDE9C900D1124A81AB90A1E
:100840001F5FC701B4010E9471047B011039D1F60A
:1008500064960FB6F894DEBF0FBECDBFDF91CF9187
:100860001F91FF90EF90DF90CF90BF90AF909F903F
:100870008F907F906F900895CF93DF93CDB7DEB7C1
:1008800028970FB6F894DEBF0FBECDBF0E94C602F8
:1008900080911401853618F4880F8093CF008091E1
:1008A0001201853618F4880F8093D00080911401CE
:1008B00090E09A8389838091120190E09C838B83DE
:1008C00080910A0190910B019E838D838091080194
:1008D0009091090198878F83CE0101960E94B203FF
:1008E000D7CF97FB072E16F4009407D077FD09D0D9
:1008F0000E94850407FC05D03EF4909581959F4F9A
:100900000895709561957F4F0895AA1BBB1B51E117
:1009100007C0AA1FBB1FA617B70710F0A61BB70B6F
:10092000881F991F5A95A9F780959095BC01CD0114
:1009300008950E940D0588F09F5798F0B92F9927C8
:10094000B751B0F0E1F0660F771F881F991F1AF0BA
:10095000BA95C9F714C0B13091F00E942705B1E0F3
:1009600008950C942705672F782F8827B85F39F0F2
:10097000B93FCCF3869577956795B395D9F73EF453
:1009800090958095709561957F4F8F4F9F4F0895FB
:10099000E89409C097FB3EF4909580957095619519
:1009A0007F4F8F4F9F4F9923A9F0F92F96E9BB27CF
:1009B0009395F695879577956795B795F111F8CF4B
:1009C000FAF4BB0F11F460FF1BC06F5F7F4F8F4FB6
:1009D0009F4F16C0882311F096E911C0772321F0AC
:1009E0009EE8872F762F05C0662371F096E8862F44
:1009F00070E060E02AF09A95660F771F881FDAF79B
:100A0000880F9695879597F9089557FD9058440F4C
:100A1000551F59F05F3F71F04795880F97FB991F5D
:100A200061F09F3F79F0879508951216130614061A
:100A3000551FF2CF4695F1DF08C0161617061806A7
:100A4000991FF1CF86957105610508940895E89482
:100A5000BB2766277727CB0197F908950E944105A8
:100A60000C94B2050E94A40538F00E94AB0520F05A
:100A7000952311F00C949B050C94A10511240C9462
:100A800028050E94050570F3959FC1F3950F50E06E
:100A9000551F629FF001729FBB27F00DB11D639F30
:100AA000AA27F00DB11DAA1F649F6627B00DA11DD6
:100AB000661F829F2227B00DA11D621F739FB00D7C
:100AC000A11D621F839FA00D611D221F749F3327EC
:100AD000A00D611D231F849F600D211D822F762F85
:100AE0006A2F11249F5750409AF0F1F088234AF062
:100AF000EE0FFF1FBB1F661F771F881F91505040CE
:100B0000A9F79E3F510580F00C949B050C94280595
:100B10005F3FE4F3983ED4F3869577956795B79554
:100B2000F795E7959F5FC1F7FE2B880F911D96956E
:100B3000879597F9089597F99F6780E870E060E0DE
:100B400008959FEF80EC089500240A941616170666
:100B500018060906089500240A94121613061406AE
:100B600005060895092E0394000C11F4882352F011
:100B7000BB0F40F4BF2B11F460FF04C06F5F7F4FC9
:100B80008F4F9F4F0895BB274A3031F4992322F4A9
:100B9000BDE2909581959F4F0C94CF05BB27FB013B
:100BA0005527AA27880F991FAA1FA41710F0A41B66
:100BB00083955051B9F7A05DAA3308F0A95DA193C0
:100BC000009779F7B111B1931192CB010C94E8051C
:100BD000DC01FC01672F71917723E1F7329704C0A4
:100BE0007C916D9370836291AE17BF07C8F308952F
:040BF000F894FFCFA7
:080BF4004665686C65720000A3
:00000001FF
