:100000000C9456000C9483010C94AB010C94D40115
:100010000C9401020C9468000C9468000C94680025
:100020000C9468000C9468000C9468000C946800B0
:100030000C9468000C9468000C9468000C946800A0
:100040000C9468000C9468000C9468000C94680090
:100050000C9468000C9468000C9468000C942A02BC
:100060000C9468000C9468000C9468000C94680070
:100070000C9468000C9468000C9468000C94680060
:100080000C9468000C9468000C9468000C94680050
:100090000C9468000C9468000C9468000C94680040
:1000A0000C9468000C9468000C946F0111241FBE1E
:1000B000CFEFDAE0DEBFCDBF21E0A0E0B1E001C0CC
:1000C0001D92AE30B207E1F70E94C6030C94820580
:1000D0000C94000020E030E02817390749F0EFECDD
:1000E000F7E03197F1F700C000002F5F3F4FF4CFEA
:1000F00008952D9A85E090E00E946A002D9885E091
:1001000090E00C946A002D9A87EC90E00197F1F74B
:1001100000C000002D9887EC90E00197F1F700C037
:10012000000008952D9A81E090E00E946A002D98C9
:1001300081E090E00C946A0084B1806384B984B15A
:100140008F6084B982E390E00E946A0085B18F7C61
:1001500085B985B1837F85B985B1836085B90E94F2
:10016000790085B1837F85B985B1836085B90E94A7
:10017000790085B1837F85B985B1836085B90E9497
:10018000790085B1827F85B9299A0E94790085B16D
:10019000827F85B9299A0E9479002B9A85B1887F40
:1001A00085B90E94790085B1807F85B90E94790068
:1001B0002B9A85B1887F85B90E94790085B1807FAF
:1001C00085B90E94790085B1817F85B9289A0E94FE
:1001D000790085B1807F85B90E94790085B1837FE0
:1001E00085B985B1836085B90E94790085B1807F2A
:1001F00085B90E94790085B18F6085B90C9479002A
:10020000CF93C82F2C9A87FF02C02B9A01C02B983E
:10021000C6FF02C02A9A01C02A98C5FF02C0299AC7
:1002200001C02998C4FF02C0289A01C028980E94E2
:100230008300C3FF02C02B9A01C02B98C2FF02C0EB
:100240002A9A01C02A98C1FF02C0299A01C02998A0
:10025000C0FF02C0289A01C02898CF910C94830057
:10026000CF93C82F2C9887FF02C02B9A01C02B98E0
:10027000C6FF02C02A9A01C02A98C5FF02C0299A67
:1002800001C02998C4FF02C0289A01C028980E9482
:100290009200C3FF02C02B9A01C02B98C2FF02C07C
:1002A0002A9A01C02A98C1FF02C0299A01C0299840
:1002B000C0FF02C0289A01C02898CF910C949200E8
:1002C000CF93DF93EC018991882319F00E940001FC
:1002D000FACFDF91CF91089580580C9430011F928E
:1002E0000F920FB60F9211244698479885B1805807
:1002F00085B92FEF84E39CE0215080409040E1F7E6
:1003000000C00000F3CF1F920F920FB60F9211247E
:100310008F939F9380910D01843640F490910C014E
:100320009F5F90930C018F5F80930D0181E080931C
:1003300009018093040185B5836085BD8CEB92E053
:1003400090930601809305019F918F910F900FBEAE
:100350000F901F9018951F920F920FB60F921124B5
:100360008F939F9380910D01882341F090910C0110
:10037000915090930C01815080930D0182E0809305
:10038000090181E08093040185B5836085BD8CEB14
:1003900092E090930601809305019F918F910F90B9
:1003A0000FBE0F901F9018951F920F920FB60F92CD
:1003B00011248F939F9380910B01843640F4909188
:1003C0000A019F5F90930A018F5F80930B0183E086
:1003D0008093090181E08093040185B5836085BD28
:1003E00010920801109207018CEB92E090930601A5
:1003F000809305019F918F910F900FBE0F901F90DA
:1004000018951F920F920FB60F9211248F939F93FE
:1004100080910B01882341F090910A0191509093B3
:100420000A01815080930B0184E08093090181E0EF
:100430008093040185B5836085BD8CEB92E0909339
:100440000601809305019F918F910F900FBE0F9031
:100450001F9018951F920F920FB60F9211242F9391
:100460003F938F939F93809107019091080101968C
:100470009093080180930701489929B120910501C3
:10048000309106012817390708F054C080910901FE
:100490008230B1F018F4813031F03DC08330F9F092
:1004A000843051F138C048993BC080910D018436A9
:1004B000B8F590910C019F5F90930C018F5F0CC079
:1004C00049992EC080910D01882351F190910C0122
:1004D000915090930C01815080930D0121C04A9955
:1004E0001FC080910B018436D8F490910A019F5F60
:1004F00090930A018F5F0CC04B9912C080910B0141
:10050000882371F090910A01915090930A018150D3
:1005100080930B0105C085B58C7F85BD10920901C4
:1005200082E390E090930601809305011092080108
:100530001092070183E886BD9F918F913F912F9183
:100540000F900FBE0F901F901895E1E6F0E080E845
:10055000808381E0808385B7806885BF85B78068A8
:1005600085BF0E949C008CE00E943001279A2F9A40
:100570003F9A269A6E98849880988AB1807F8AB92B
:100580008BB18F608BB9EFE7F0E080818160808371
:10059000EEE7F0E0808180618083E0ECF0E0808134
:1005A00082608083808181608083A3ECB0E08C9145
:1005B0008D7F8C938C918E7F8C93808180688083DB
:1005C000808180648083808180628083808180617B
:1005D00080838C9180688C93EAE7F0E080818F774C
:1005E00080838C9188608C93EBE7F0E0808180645D
:1005F000808388EC8093D100E1ECF0E08081877FFC
:10060000808380818B7F80838081826080838081F2
:1006100081608083EEE6F0E080818160808383E802
:1006200086BDE9E6F0E0808182608083E89A80817F
:1006300088608083E99A808180628083EA9A8081E1
:1006400080688083EB9A789408958091C100877FB9
:100650008093C1008091C1008B7F8093C100809105
:10066000C1008D7F8093C1008091C1008E7F8093F7
:10067000C10080917C008F7780937C0080917C000A
:10068000806480937C0080917C00807E80937C00DD
:1006900080917B008F7D80937B0080917A00866CB7
:1006A00080937A0080917A0086FDFCCF609178007B
:1006B00080917900837070E0782B80E090E00E9458
:1006C00052042AE137E64CE150E40E94B80420913C
:1006D0007A002F7720937A0020917C002460209369
:1006E0007C002091C100277F2093C1002091C10090
:1006F0002B7F2093C1002091C10022602093C10074
:100700002091C10021602093C1000E942304CB01ED
:1007100008950F931F93CF93DF93CDB7DEB7649700
:100720000FB6F894DEBF0FBECDBF8C0180E80E94EB
:100730003001F8018081918164E670E00E94FB0342
:10074000CB014AE0BE016F5F7F4F0E944D05CE0195
:1007500001960E9460018DE80E9430014AE0BE01CE
:100760006F5F7F4FF801828193810E944D05CE011A
:1007700001960E94600164960FB6F894DEBF0FBE2A
:10078000CDBFDF91CF911F910F910895CF93DF934C
:10079000CDB7DEB728970FB6F894DEBF0FBECDBF3A
:1007A0000E94A50280910C01853618F4880F809371
:1007B000CF0080910A01853618F4880F8093D0000D
:1007C00080910C0190E09A83898380910A0190E0E6
:1007D0009C838B8380910201909103019E838D8382
:1007E000809100019091010198878F83CE0101963D
:1007F0000E948903D7CF97FB072E16F4009407D0E9
:1008000077FD09D00E940F0407FC05D03EF49095B7
:1008100081959F4F0895709561957F4F0895AA1B0C
:10082000BB1B51E107C0AA1FBB1FA617B70710F0DB
:10083000A61BB70B881F991F5A95A9F7809590950D
:10084000BC01CD0108950E94970488F09F5798F04D
:10085000B92F9927B751B0F0E1F0660F771F881FC5
:10086000991F1AF0BA95C9F714C0B13091F00E94DF
:10087000B104B1E008950C94B104672F782F882754
:10088000B85F39F0B93FCCF3869577956795B39506
:10089000D9F73EF490958095709561957F4F8F4F75
:1008A0009F4F0895E89409C097FB3EF4909580957A
:1008B000709561957F4F8F4F9F4F9923A9F0F92F26
:1008C00096E9BB279395F695879577956795B795A4
:1008D000F111F8CFFAF4BB0F11F460FF1BC06F5F8A
:1008E0007F4F8F4F9F4F16C0882311F096E911C09C
:1008F000772321F09EE8872F762F05C0662371F0BD
:1009000096E8862F70E060E02AF09A95660F771FD0
:10091000881FDAF7880F9695879597F9089557FD00
:100920009058440F551F59F05F3F71F04795880F5D
:1009300097FB991F61F09F3F79F0879508951216F4
:1009400013061406551FF2CF4695F1DF08C01616A0
:1009500017061806991FF1CF869571056105089451
:100960000895E894BB2766277727CB0197F9089568
:100970000E94CB040C943C050E942E0538F00E9486
:10098000350520F0952311F00C9425050C942B05CA
:1009900011240C94B2040E948F0470F3959FC1F34C
:1009A000950F50E0551F629FF001729FBB27F00D1D
:1009B000B11D639FAA27F00DB11DAA1F649F662772
:1009C000B00DA11D661F829F2227B00DA11D621FC1
:1009D000739FB00DA11D621F839FA00D611D221F7B
:1009E000749F3327A00D611D231F849F600D211D5F
:1009F000822F762F6A2F11249F5750409AF0F1F0E2
:100A000088234AF0EE0FFF1FBB1F661F771F881F4A
:100A100091505040A9F79E3F510580F00C94250558
:100A20000C94B2045F3FE4F3983ED4F38695779537
:100A30006795B795F795E7959F5FC1F7FE2B880FF0
:100A4000911D9695879597F9089597F99F6780E886
:100A500070E060E008959FEF80EC089500240A9410
:100A60001616170618060906089500240A94121689
:100A70001306140605060895092E0394000C11F4BC
:100A8000882352F0BB0F40F4BF2B11F460FF04C069
:100A90006F5F7F4F8F4F9F4F0895BB274A3031F4D0
:100AA000992322F4BDE2909581959F4F0C945905AE
:100AB000BB27FB015527AA27880F991FAA1FA41738
:100AC00010F0A41B83955051B9F7A05DAA3308F02C
:100AD000A95DA193009779F7B111B1931192CB0160
:100AE0000C947205DC01FC01672F71917723E1F70B
:100AF000329704C07C916D9370836291AE17BF07EB
:080B0000C8F30895F894FFCF3B
:00000001FF
