:100000000C9456000C9483010C94AB010C94D40115
:100010000C9401020C9468000C9468000C94680025
:100020000C9468000C9468000C9468000C946800B0
:100030000C9468000C9468000C9468000C946800A0
:100040000C9468000C9468000C9468000C94680090
:100050000C9468000C9468000C9468000C942A02BC
:100060000C9468000C9468000C9468000C94680070
:100070000C9468000C9468000C9468000C94680060
:100080000C9468000C9468000C9468000C94680050
:100090000C9468000C9468000C9468000C94680040
:1000A0000C9468000C9468000C946F0111241FBE1E
:1000B000CFEFDAE0DEBFCDBF21E0A0E0B1E001C0CC
:1000C0001D92AC30B207E1F70E9488030C941C0526
:1000D0000C94000020E030E02817390749F0EFECDD
:1000E000F7E03197F1F700C000002F5F3F4FF4CFEA
:1000F00008952D9A85E090E00E946A002D9885E091
:1001000090E00C946A002D9A87EC90E00197F1F74B
:1001100000C000002D9887EC90E00197F1F700C037
:10012000000008952D9A81E090E00E946A002D98C9
:1001300081E090E00C946A0084B1806384B984B15A
:100140008F6084B982E390E00E946A0085B18F7C61
:1001500085B985B1837F85B985B1836085B90E94F2
:10016000790085B1837F85B985B1836085B90E94A7
:10017000790085B1837F85B985B1836085B90E9497
:10018000790085B1827F85B9299A0E94790085B16D
:10019000827F85B9299A0E9479002B9A85B1887F40
:1001A00085B90E94790085B1807F85B90E94790068
:1001B0002B9A85B1887F85B90E94790085B1807FAF
:1001C00085B90E94790085B1817F85B9289A0E94FE
:1001D000790085B1807F85B90E94790085B1837FE0
:1001E00085B985B1836085B90E94790085B1807F2A
:1001F00085B90E94790085B18F6085B90C9479002A
:10020000CF93C82F2C9A87FF02C02B9A01C02B983E
:10021000C6FF02C02A9A01C02A98C5FF02C0299AC7
:1002200001C02998C4FF02C0289A01C028980E94E2
:100230008300C3FF02C02B9A01C02B98C2FF02C0EB
:100240002A9A01C02A98C1FF02C0299A01C02998A0
:10025000C0FF02C0289A01C02898CF910C94830057
:10026000CF93C82F2C9887FF02C02B9A01C02B98E0
:10027000C6FF02C02A9A01C02A98C5FF02C0299A67
:1002800001C02998C4FF02C0289A01C028980E9482
:100290009200C3FF02C02B9A01C02B98C2FF02C07C
:1002A0002A9A01C02A98C1FF02C0299A01C0299840
:1002B000C0FF02C0289A01C02898CF910C949200E8
:1002C000CF93DF93EC018991882319F00E940001FC
:1002D000FACFDF91CF91089580580C9430011F928E
:1002E0000F920FB60F9211244698479885B1805807
:1002F00085B92FEF84E39CE0215080409040E1F7E6
:1003000000C00000F3CF1F920F920FB60F9211247E
:100310008F939F9380910901843640F49091080156
:100320009F5F909308018F5F8093090181E0809324
:1003300005018093000185B5836085BD8CEB92E05B
:1003400090930201809301019F918F910F900FBEB6
:100350000F901F9018951F920F920FB60F921124B5
:100360008F939F9380910901882341F09091080118
:1003700091509093080181508093090182E080930D
:10038000050181E08093000185B5836085BD8CEB1C
:1003900092E090930201809301019F918F910F90C1
:1003A0000FBE0F901F9018951F920F920FB60F92CD
:1003B00011248F939F9380910701843640F490918C
:1003C00006019F5F909306018F5F8093070183E092
:1003D0008093050181E08093000185B5836085BD30
:1003E00010920401109203018CEB92E090930201B1
:1003F000809301019F918F910F900FBE0F901F90DE
:1004000018951F920F920FB60F9211248F939F93FE
:1004100080910701882341F09091060191509093BB
:10042000060181508093070184E08093050181E0FB
:100430008093000185B5836085BD8CEB92E090933D
:100440000201809301019F918F910F900FBE0F9039
:100450001F9018951F920F920FB60F9211242F9391
:100460003F938F939F938091030190910401019694
:100470009093040180930301489929B120910101CF
:10048000309102012817390708F054C08091050106
:100490008230B1F018F4813031F03DC08330F9F092
:1004A000843051F138C048993BC0809109018436AD
:1004B000B8F5909108019F5F909308018F5F0CC081
:1004C00049992EC080910901882351F1909108012A
:1004D00091509093080181508093090121C04A995D
:1004E0001FC0809107018436D8F4909106019F5F68
:1004F000909306018F5F0CC04B9912C08091070149
:10050000882371F0909106019150909306018150DB
:100510008093070105C085B58C7F85BD10920501CC
:1005200082E390E090930201809301011092040114
:100530001092030183E886BD9F918F913F912F9187
:100540000F900FBE0F901F901895E1E6F0E080E845
:10055000808381E0808385B7806885BF85B78068A8
:1005600085BF0E949C008CE00E943001279A3F9A30
:10057000269A6E98849880988AB1807F8AB98BB1C8
:100580008F608BB9EFE7F0E0808181608083EEE7D8
:10059000F0E0808180618083E0ECF0E08081826027
:1005A0008083808181608083A3ECB0E08C918D7F1B
:1005B0008C938C918E7F8C938081806880838081E6
:1005C0008064808380818062808380818061808379
:1005D0008C9180688C93EAE7F0E080818F7780834C
:1005E0008C9188608C93EBE7F0E08081806480835D
:1005F00088EC8093D100E1ECF0E08081877F8083FC
:1006000080818B7F80838081826080838081816014
:100610008083EEE6F0E080818160808383E886BDA0
:10062000E9E6F0E0808182608083E89A80818860DA
:100630008083E99A808180628083EA9A80818068E1
:100640008083EB9A789408958091C100877F80938E
:10065000C1008091C1008B7F8093C1008091C10057
:100660008D7F8093C1008091C1008E7F8093C100F7
:1006700080917C008F7780937C0080917C008064E7
:1006800080937C0080917C00807E80937C008091B0
:100690007B008F7D80937B0080917A00866C8093B5
:1006A0007A0080917A0086FDFCCF6091780080917D
:1006B0007900837070E0782B80E090E00E94EC037A
:1006C0002AE137E64CE150E40E94520420917A007E
:1006D0002F7720937A0020917C00246020937C0067
:1006E0002091C100277F2093C1002091C1002B7F62
:1006F0002093C1002091C10022602093C10020916D
:10070000C10021602093C1000E94BD03CB01089568
:10071000CF93DF93CDB7DEB764970FB6F894DEBF03
:100720000FBECDBF0E94A5020E94240390930B012F
:1007300080930A0181E00E94300180E80E9430012C
:100740004AE0BE016F5F7F4F80910A0190910B01DB
:100750000E94E704CE0101960E9460018091080189
:10076000853618F4880F8093CF0080910601853676
:10077000D8F6880F8093D000D7CF0E94310488F03C
:100780009F5798F0B92F9927B751B0F0E1F0660F55
:10079000771F881F991F1AF0BA95C9F714C0B13096
:1007A00091F00E944B04B1E008950C944B04672F24
:1007B000782F8827B85F39F0B93FCCF386957795C5
:1007C0006795B395D9F73EF49095809570956195AE
:1007D0007F4F8F4F9F4F0895E89409C097FB3EF4D9
:1007E00090958095709561957F4F8F4F9F4F99237E
:1007F000A9F0F92F96E9BB279395F69587957795FC
:100800006795B795F111F8CFFAF4BB0F11F460FFBB
:100810001BC06F5F7F4F8F4F9F4F16C0882311F013
:1008200096E911C0772321F09EE8872F762F05C027
:10083000662371F096E8862F70E060E02AF09A95C2
:10084000660F771F881FDAF7880F9695879597F9B7
:10085000089557FD9058440F551F59F05F3F71F0B0
:100860004795880F97FB991F61F09F3F79F0879517
:100870000895121613061406551FF2CF4695F1DFA0
:1008800008C0161617061806991FF1CF8695710530
:10089000610508940895E894BB2766277727CB0164
:1008A00097F908950E9465040C94D6040E94C80428
:1008B00038F00E94CF0420F0952311F00C94BF046F
:1008C0000C94C50411240C944C040E94290470F368
:1008D000959FC1F3950F50E0551F629FF001729FE5
:1008E000BB27F00DB11D639FAA27F00DB11DAA1FF4
:1008F000649F6627B00DA11D661F829F2227B00D41
:10090000A11D621F739FB00DA11D621F839FA00DCB
:10091000611D221F749F3327A00D611D231F849F1B
:10092000600D211D822F762F6A2F11249F57504072
:100930009AF0F1F088234AF0EE0FFF1FBB1F661FED
:10094000771F881F91505040A9F79E3F510580F0B6
:100950000C94BF040C944C045F3FE4F3983ED4F332
:10096000869577956795B795F795E7959F5FC1F75A
:10097000FE2B880F911D9695879597F9089597F905
:100980009F6780E870E060E008959FEF80EC089535
:1009900000240A941616170618060906089500245E
:1009A0000A9412161306140605060895092E0394D8
:1009B000000C11F4882352F0BB0F40F4BF2B11F44C
:1009C00060FF04C06F5F7F4F8F4F9F4F0895BB271D
:1009D0004A3031F4992322F4BDE2909581959F4FDE
:1009E0000C94F304BB27FB015527AA27880F991FF6
:1009F000AA1FA41710F0A41B83955051B9F7A05D4E
:100A0000AA3308F0A95DA193009779F7B111B193CA
:100A10001192CB010C940C05DC01FC01672F719144
:100A20007723E1F7329704C07C916D9370836291D4
:0C0A3000AE17BF07C8F30895F894FFCF7D
:00000001FF
