:100000000C9456000C947A010C949B010C94BC0146
:100010000C94E1010C9468000C9468000C94680046
:100020000C9468000C9468000C9468000C946800B0
:100030000C9468000C9468000C9468000C946800A0
:100040000C9468000C9468000C9468000C94680090
:100050000C9468000C9468000C9468000C940202E4
:100060000C9468000C9468000C9468000C94680070
:100070000C9468000C9468000C9468000C94680060
:100080000C9468000C9468000C9468000C94680050
:100090000C9468000C9468000C9468000C94680040
:1000A0000C9468000C9468000C94660111241FBE27
:1000B000CFEFDAE0DEBFCDBF21E0A0E0B1E001C0CC
:1000C0001D92A830B207E1F70E9444030C94750317
:1000D0000C94000020E030E02817390749F0EFECDD
:1000E000F7E03197F1F700C000002F5F3F4FF4CFEA
:1000F00008952D9A85E090E00E946A002D9885E091
:1001000090E00C946A0084B1806384B984B18F60FC
:1001100084B982E390E00E946A0085B18F7C85B942
:1001200085B1837F85B985B1836085B90E947900E7
:1001300085B1837F85B985B1836085B90E947900D7
:1001400085B1837F85B985B1836085B90E947900C7
:1001500085B1827F85B9299A0E94790085B1827F15
:1001600085B9299A0E9479002B9A85B1887F85B933
:100170000E94790085B1807F85B90E9479002B9A11
:1001800085B1887F85B90E94790085B1807F85B966
:100190000E94790085B1817F85B9289A0E947900F3
:1001A00085B1807F85B90E94790085B1837F85B94B
:1001B00085B1836085B90E94790085B1807F85B95A
:1001C0000E94790085B18F6085B90C947900CF9336
:1001D000C82F2C9A87FF02C02B9A01C02B98C6FF0C
:1001E00002C02A9A01C02A98C5FF02C0299A01C0FC
:1001F0002998C4FF02C0289A01C028980E9479005B
:1002000081E090E00E946A00C3FF02C02B9A01C007
:100210002B98C2FF02C02A9A01C02A98C1FF02C0CF
:10022000299A01C02998C0FF02C0289A01C02898C5
:100230000E94790081E090E0CF910C946A00CF9306
:10024000C82F2C9887FF02C02B9A01C02B98C6FF9D
:1002500002C02A9A01C02A98C5FF02C0299A01C08B
:100260002998C4FF02C0289A01C028980E947900EA
:1002700081E090E00E946A00C3FF02C02B9A01C097
:100280002B98C2FF02C02A9A01C02A98C1FF02C05F
:10029000299A01C02998C0FF02C0289A01C0289855
:1002A0000E94790081E090E0CF910C946A00CF9396
:1002B000DF93EC018991882319F00E94E700FACFBF
:1002C000DF91CF91089580580C941F011F920F92D7
:1002D0000FB60F9211244698479885B1805885B97A
:1002E0002FEF84E39CE0215080409040E1F700C074
:1002F0000000F3CF1F920F920FB60F9211248F932D
:100300009F9380910701843618F48F5F80930701D3
:1003100081E08093050185B5836085BD8CEB92E01B
:1003200090930201809301019F918F910F900FBED6
:100330000F901F9018951F920F920FB60F921124D5
:100340008F939F9380910701882319F081508093A8
:10035000070182E08093050185B5836085BD8CEB44
:1003600092E090930201809301019F918F910F90F1
:100370000FBE0F901F9018951F920F920FB60F92FD
:1003800011248F939F9380910601843618F48F5F18
:100390008093060183E08093050185B5836085BD68
:1003A00010920401109203018CEB92E090930201F1
:1003B000809301019F918F910F900FBE0F901F901E
:1003C00018951F920F920FB60F9211248F939F933F
:1003D00080910601882319F081508093060184E002
:1003E0008093050185B5836085BD8CEB92E0909389
:1003F0000201809301019F918F910F900FBE0F908A
:100400001F9018951F920F920FB60F9211242F93E1
:100410003F938F939F9380910301909104010196E4
:100420009093040180930301489929B1209101011F
:10043000309102012817390708F040C0809105016A
:10044000823089F018F4813031F029C08330A9F06E
:100450008430D9F024C0489927C0809107018436A0
:1004600018F58F5F07C049991FC080910701882345
:10047000D9F081508093070117C04A9915C0809127
:100480000601843688F48F5F07C04B990DC08091B8
:100490000601882349F081508093060105C085B587
:1004A0008C7F85BD1092050182E390E0909302015C
:1004B00080930101109204011092030183E886BD2C
:1004C0009F918F913F912F910F900FBE0F901F9092
:1004D0001895E1E6F0E080E8808381E0808385B7CD
:1004E000806885BF85B7806885BF0E9483008CE0E7
:1004F0000E941F01279A3F9A269A6E9884988098A6
:100500008AB1807F8AB98BB18F608BB9EFE7F0E059
:10051000808181608083EEE7F0E08081806180836C
:10052000E0ECF0E080818260808380818160808364
:10053000A3ECB0E08C918D7F8C938C918E7F8C930B
:1005400080818068808380818064808380818062F4
:1005500080838081806180838C9180688C93EAE7BE
:10056000F0E080818F7780838C9188608C93EBE7BB
:10057000F0E080818064808388EC8093D100E1EC9E
:10058000F0E08081877F808380818B7F8083808182
:1005900082608083808181608083EEE6F0E08081EC
:1005A0008160808383E886BDE9E6F0E08081826037
:1005B0008083E89A808188608083E99A8081806264
:1005C0008083EA9A808180688083EB9A789408958A
:1005D0008091C100877F8093C1008091C1008B7F93
:1005E0008093C1008091C1008D7F8093C100809174
:1005F000C1008E7F8093C10080917C008F778093B3
:100600007C0080917C00806480937C0080917C00E1
:10061000807E80937C0080917B008F7D80937B0027
:1006200080917A00866C80937A0080917A0086FDB2
:10063000FCCF809178009091790065E070E00E9495
:10064000610390917A009F7790937A0090917C005B
:10065000946090937C009091C100977F9093C1002B
:100660009091C1009B7F9093C1009091C1009260D6
:100670009093C1009091C10091609093C10084EC6F
:10068000689F802D112408950E94690285EC0E94C4
:100690001F0181E60E94E70080910701853618F46A
:1006A000880F8093CF0080910601853618F4880F5B
:1006B0008093D00080910001882341F30E94E802DA
:1006C000E5CFAA1BBB1B51E107C0AA1FBB1FA61782
:1006D000B70710F0A61BB70B881F991F5A95A9F7EB
:0E06E00080959095BC01CD010895F894FFCF50
:00000001FF
