S01800004D6F746F72616E737465756572756E672E737265634A
S11300000C94D3000C94DD000C94DD000C94DD0002
S11300100C94DD000C94DD000C94DD000C94DD00E8
S11300200C94DD000C94DD000C94DD000C94DD00D8
S11300300C94DD000C94DD000C94DD000C94DD00C8
S11300400C94DD000C94DD000C94DD000C94DD00B8
S11300500C94DD000C94DD000C94DD000C94DD00A8
S11300600C94DD000C94DD000C94DD000C94DD0098
S11300700C94DD000C94DD000C94DD000C94DD0088
S11300800C94DD000C94DD000C94DD000C94DD0078
S11300900C94DD000C94DD000C94DD000C94DD0068
S11300A00C94DD000C94DD000C94DD0000407A100B
S11300B0F35A00A0724E18090010A5D4E80000E815
S11300C07648170000E40B54020000CA9A3B000073
S11300D000E1F505000080969800000040420F0002
S11300E00000A08601000000102700000000E803C3
S11300F0000000006400000000000A00000000008E
S11301000100000000002C76D888DC674F0823DF4C
S1130110C1DFAE59E1B1B796E5E3E453C63AE6511F
S1130120997696E8E6C28426EB898C9B62ED407C46
S11301306FFCEFBC9C9F40F2BAA56FA5F490055AE2
S11301402AF75C936B6CF9676DC11BFCE0E40D4707
S1130150FEF520E6B500D0ED902E0300943577052A
S11301600080841E080000204E0A000000C80C33E2
S11301703333330F986E12831141EF8D2114893B71
S1130180E65516CFFEE6DB18D1844B381BF77C1DF1
S1130190901DA4BBE424203284725E228100C9F144
S11301A024ECA1E53D2711241FBECFEFDAE0DEBF2A
S11301B0CDBF0E9426020C944F050C940000E1E68A
S11301C0F0E080E8808381E0808385B7806885BF24
S11301D085B7806885BF0E9440018CE00E94DE01E3
S11301E0279A8098ECE7F0E080818F778083808184
S11301F0806480838081806280838081807E80832C
S1130200EBE7F0E080818F7D8083EAE7F0E0808196
S1130210866C808384B5816084BD84B5826084BD2E
S113022085B5877F85BD84B5806484BD84B58068C9
S113023084BD85B5816085BD85B5826085BD85B584
S11302408B7F85BD84E687BD0895009769F020E023
S113025030E0EFECF7E03197F1F700C000002F5FDA
S11302603F4F82179307A9F708955D9A85E090E0C0
S11302700E9425015D9885E090E00E942501089583
S11302808AB180638AB98AB18F608AB982E390E0C7
S11302900E9425018BB18F7C8BB98BB1837F8BB985
S11302A08BB183608BB90E9435018BB1837F8BB98D
S11302B08BB183608BB90E9435018BB1837F8BB97D
S11302C08BB183608BB90E9435018BB1827F8BB96E
S11302D0599A0E9435018BB1827F8BB9599A0E9439
S11302E035015B9A8BB1887F8BB90E9435018BB144
S11302F0807F8BB90E9435015B9A8BB1887F8BB963
S11303000E9435018BB1807F8BB90E9435018BB17E
S1130310817F8BB9589A0E9435018BB1807F8BB94C
S11303200E9435018BB1837F8BB98BB183608BB90C
S11303300E9435018BB1807F8BB90E9435018BB14E
S11303408F608BB90E9435010895CF93C82F5C9AB2
S1130350882314F45B9A01C05B98C6FF02C05A9AC2
S113036001C05A98C5FF02C0599A01C05998C4FFE8
S113037002C0589A01C058980E94350181E090E06B
S11303800E942501C3FF02C05B9A01C05B98C2FFB3
S113039002C05A9A01C05A98C1FF02C0599A01C0BA
S11303A05998C0FF02C0589A01C058980E9435015C
S11303B081E090E00E942501CF910895CF93C82F4A
S11303C05C98882314F45B9A01C05B98C6FF02C052
S11303D05A9A01C05A98C5FF02C0599A01C0599847
S11303E0C4FF02C0589A01C058980E94350181E0A8
S11303F090E00E942501C3FF02C05B9A01C05B9894
S1130400C2FF02C05A9A01C05A98C1FF02C0599A49
S113041001C05998C0FF02C0589A01C058980E9460
S1130420350181E090E00E942501CF910895CF939A
S1130430DF93EC018881882331F021960E94A50185
S113044089918111FBCFDF91CF910895CF93DF93F1
S1130450CDB7DEB764970FB6F894DEBF0FBECDBF3D
S1130460E1E6F0E080E8808381E0808385B78068FE
S113047085BF85B7806885BF0E94DF0020E030E03B
S11304800F2EFAE7EF2EF12CF02D0F2EF8E78F2E1A
S1130490912CF02D0F2EF9E7AF2EB12CF02DF70192
S11304A0808186FDFCCFF4018081F501C080D12CD0
S11304B02C153D0541F1B601660F771F660F771FB6
S11304C06C0D7D1D672F770F770B072E000C880BA3
S11304D0990B0E948B028E010F5F1F4F22E030E0C8
S11304E043E050E00E94C60281E00E94DE01C801A0
S11304F00E941702FFEF24E38CE0F150204080407B
S1130500E1F700C00000F7018081806480839601D8
S1130510C6CFE89409C097FB3EF4909580957095FA
S113052061957F4F8F4F9F4F9923A9F0F92F96E93B
S1130530BB279395F695879577956795B795F111B0
S1130540F8CFFAF4BB0F11F460FF1BC06F5F7F4F4D
S11305508F4F9F4F16C0882311F096E911C077235F
S113056021F09EE8872F762F05C0662371F096E868
S1130570862F70E060E02AF09A95660F771F881F37
S1130580DAF7880F9695879597F90895EF920F9368
S11305901F93CF93DF93E80147FD02C034E001C00D
S11305A034E1042E000C550B57FF03C051954195BF
S11305B05109E32E022F242FAE010E94E602CE0140
S11305C0DF91CF911F910F91EF900895A9E0B0E0D2
S11305D0ECEEF2E00C941E056A01122FB02E2BE310
S11305E0201720F0FF24F394F00E02C02CE3F22E27
S11305F00F2D27E0AE014F5F5F4F0E944004BC0106
S11306004981842F8970813031F0E1FC06C0E0FE1D
S113061006C090E205C09DE203C09BE201C090E0E9
S11306205E2D507143FF3CC0911102C083E001C0B4
S113063084E0811718F4212F281B01C020E05111F8
S11306400BC0F601822F30E2882319F031938150D8
S1130650FBCFC20ED11C20E0992329F0D6019C9334
S1130660F60131966F01C6010396E2FE0AC03EE42C
S1130670D6013C9341E411964C93119712963C9306
S113068006C03EE6F601308341E641833283FC0135
S1130690322F40E2332309F442C041933150FACF60
S11306A042FF44C0911102C083E001C084E081177D
S11306B018F4212F281B01C020E051110BC0F601B2
S11306C0822F30E2882319F031938150FBCFC20E80
S11306D0D11C20E0992329F0D6019C93F601319690
S11306E06F01C6010396E2FE0BC039E4D6013C93C8
S11306F03EE411963C93119736E412963C9307C05E
S113070039E6F60130833EE6318336E63283FC0176
S1130710322F40E2332319F041933150FBCFFC01D7
S1130720E20FF11D10828EEF9FEFA6C021E030E0B2
S1130730911102C020E030E0161617061CF4FB01EC
S1130740319602C0E1E0F0E02E0F3F1FBB2021F004
S1130750EB2DF0E0319602C0E0E0F0E02E0F3F1FF9
S1130760E12FF0E02E173F071CF4121B212F01C0CC
S113077020E08E2D887159F4F601822F30E288230F
S113078019F031938150FBCFC20ED11C20E0992384
S113079029F0D6019C93F60131966F0151110BC0DB
S11307A0F601822F90E3882319F091938150FBCFB7
S11307B0C20ED11C20E00F2D060F9A81342F307108
S11307C044FF03C0913309F40150101624F4093096
S11307D018F008E001C001E0AB0177FF02C040E07F
S11307E050E0FB01E41BF50BA1E0B0E0AC0FBD1F32
S11307F0EA0FFB1F8EE2A82E4B01801A91080B2DE5
S113080010E01195019511094F3FBFEF5B0721F4EB
S1130810D601AC9211966D01641775072CF08416FD
S1130820950614F4818101C080E341505109319649
S1130830D60111967D014017510724F0D6018C93FF
S11308406701E2CF6417750739F4963320F49533C2
S113085019F4311101C081E3F6018083F701822F7D
S113086090E2882319F091938150FBCFF701E20FB6
S1130870F11D108280E090E02996ECE00C943A059A
S1130880283008F027E03327DA01990F311D87FD5E
S1130890916000966105710539F432602E5F3D93D5
S11308A030E32A95E1F708959F3F30F080387105D1
S11308B0610509F03C5F3C5F3D93913008F080682E
S11308C0911DDF93CF931F930F93FF92EF92192FF4
S11308D0987F9695E92F96959695E90FFF27EA5FFD
S11308E0FE4F99273327EE24FF24A701E701059043
S11308F00894079428F4360FE71EF81E491F511D6B
S1130900660F771F881F991F0694A1F70590079417
S113091028F4E70EF81E491F561FC11D770F881FC4
S1130920991F661F0694A1F70590079428F4F80E02
S1130930491F561FC71FD11D880F991F661F771F98
S11309400694A1F70590079420F4490F561FC71F7A
S1130950D81F990F661F771F881F0694A9F78491E3
S11309601095177041F0D695C79557954795F7940C
S1130970E7941A95C1F7ECEAF0E0689415901591A4
S113098035916591959105907FE27395E118F10A8F
S1130990430B560BC90BD009C0F7E10CF11E431FE2
S11309A0561FC91FD01D7EF4703311F48A95E6CF0B
S11309B0E894015030F0080F0AF40027021708F4F5
S11309C0202F2395022F7A3328F079E37D932A95FB
S11309D0E9F710C07D932A9589F606949795679553
S11309E0379517951794E118F10A430B560BC90B69
S11309F0D00998F023957E9173957A3308F070E3CB
S1130A007C932013B8F77E9170617D9330F08395C9
S1130A1071E37D9370E32A95E1F71124EF90FF9041
S1130A200F911F91CF91DF91992787FD909508959C
S1130A302F923F924F925F926F927F928F929F92EA
S1130A40AF92BF92CF92DF92EF92FF920F931F93D8
S1130A50CF93DF93CDB7DEB7CA1BDB0B0FB6F89489
S1130A60DEBF0FBECDBF09942A88398848885F84C9
S1130A706E847D848C849B84AA84B984C884DF803A
S1130A80EE80FD800C811B81AA81B981CE0FD11D1E
S1130A900FB6F894DEBF0FBECDBFED010895F894F4
S1050AA0FFCF82
S9030000FC
