S01800004D6F746F72616E737465756572756E672E737265634A
S11300000C9456000C94BD010C94DE010C94FF0179
S11300100C9420020C9468000C9468000C94680002
S11300200C9468000C9468000C9468000C946800AC
S11300300C9468000C9468000C9468000C9468009C
S11300400C9468000C9468000C9468000C9468008C
S11300500C9468000C9468000C9468000C944102A1
S11300600C9468000C9468000C9468000C9468006C
S11300700C9468000C9468000C9468000C9468005C
S11300800C9468000C9468000C9468000C9468004C
S11300900C9468000C9468000C9468000C9468003C
S11300A00C9468000C9468000C94A90111241FBEE0
S11300B0CFEFDAE0DEBFCDBF21E0A0E0B1E001C0C8
S11300C01D92A730B207E1F70E949E010C94BC0276
S11300D00C940000E1E6F0E080E8808381E0808316
S11300E085B7806885BF85B7806885BF0E94000199
S11300F08CE00E946501279A3F9A269A6E9884980C
S113010080988AB1807F8AB98BB18F608BB9EFE711
S1130110F0E0808181608083EEE7F0E0808180619F
S11301208083E0ECF0E08081826080838081816064
S11301308083A3ECB0E08C918D7F8C938C918E7F27
S11301408C9380818068808380818F7B8083808191
S11301508062808380818F7E80838C9180648C9385
S11301608C9180688C938C9188608C9388EC8093BC
S1130170D10084E68093D000E1ECF0E08081877FB9
S1130180808380818B7F8083808182608083808173
S113019081608083EEE6F0E080818160808383E883
S11301A086BDE9E6F0E0808182608083E89A808100
S11301B088608083E99A808180628083EA9A808162
S11301C080688083EB9A78940895009769F020E022
S11301D030E0EFECF7E03197F1F700C000002F5F5B
S11301E03F4F82179307A9F708952D9A85E090E071
S11301F00E94E5002D9885E090E00E94E5000895B6
S113020084B1806384B984B18F6084B982E390E05F
S11302100E94E50085B18F7C85B985B1837F85B95E
S113022085B1836085B90E94F50085B1837F85B966
S113023085B1836085B90E94F50085B1837F85B956
S113024085B1836085B90E94F50085B1827F85B947
S1130250299A0E94F50085B1827F85B9299A0E9466
S1130260F5002B9A85B1887F85B90E94F50085B188
S1130270807F85B90E94F5002B9A85B1887F85B966
S11302800E94F50085B1807F85B90E94F50085B193
S1130290817F85B9289A0E94F50085B1807F85B950
S11302A00E94F50085B1837F85B985B1836085B9E6
S11302B00E94F50085B1807F85B90E94F50085B163
S11302C08F6085B90E94F5000895CF93C82F2C98AC
S11302D0882314F42B9A01C02B98C6FF02C02A9AD3
S11302E001C02A98C5FF02C0299A01C02998C4FFF9
S11302F002C0289A01C028980E94F50081E090E08D
S11303000E94E500C3FF02C02B9A01C02B98C2FFD4
S113031002C02A9A01C02A98C1FF02C0299A01C0CA
S11303202998C0FF02C0289A01C028980E94F500AD
S113033081E090E00E94E500CF9108950E946A0058
S1130340EFECF0E0809106018536F0F7880F8083AA
S1130350F9CF1F920F920FB60F9211244698479827
S113036085B1805885B92FEF84E39CE0215080400B
S11303709040E1F700C00000F3CF1F920F920FB638
S11303800F9211248F939F9380910601843618F461
S11303908F5F8093060181E08093040185B58360BB
S11303A085BD8CEB92E090930101809300019F91B5
S11303B08F910F900FBE0F901F9018951F920F9260
S11303C00FB60F9211248F939F9380910601882377
S11303D019F081508093060182E08093040185B571
S11303E0836085BD8CEB92E09093010180930001C2
S11303F09F918F910F900FBE0F901F9018951F9291
S11304000F920FB60F9211248F939F938091050141
S1130410843618F48F5F8093050183E08093040190
S113042085B5836085BD8CEB92E090930101809348
S113043000019F918F910F900FBE0F901F90189500
S11304401F920F920FB60F9211248F939F93809156
S11304500501882319F081508093050184E080937D
S1130460040185B5836085BD8CEB92E09093010116
S1130470809300019F918F910F900FBE0F901F905A
S113048018951F920F920FB60F9211242F933F933A
S11304908F939F9380910201909103010196909311
S11304A0030180930201209100013091010128177A
S11304B0390708F056C0809104018230E1F028F435
S11304C0882341F0813051F03DC0833009F18430FC
S11304D061F138C085B58C7F85BD39C0489908C0A5
S11304E080910601843698F58F5F809306012FC0B2
S11304F0109204012CC0499908C0809106018823F8
S113050031F181508093060122C0109204011FC072
S11305104A9908C0809105018436C8F48F5F80939E
S1130520050115C01092040112C04B9908C08091B6
S11305300501843660F48F5F8093050108C0109232
S1130540040105C085B58C7F85BD1092040182E34A
S113055090E09093010180930001109203011092A6
S1130560020183E886BD9F918F913F912F910F9057
S10F05700FBE0F901F901895F894FFCF59
S9030000FC
