S01800004D6F746F72616E737465756572756E672E737265634A
S11300000C9456000C9402020C9423020C944402A7
S11300100C9469020C9468000C9468000C946800B9
S11300200C9468000C9468000C9468000C946800AC
S11300300C9468000C9468000C9468000C9468009C
S11300400C9468000C9468000C9468000C9468008C
S11300500C9468000C9468000C9468000C948A0258
S11300600C9468000C9468000C9468000C9468006C
S11300700C9468000C9468000C9468000C9468005C
S11300800C9468000C9468000C9468000C9468004C
S11300900C9468000C9468000C9468000C9468003C
S11300A00C9468000C9468000C94EE0111241FBE9B
S11300B0CFEFDAE0DEBFCDBF21E0A0E0B1E001C0C8
S11300C01D92A730B207E1F70E94D4010C94F50207
S11300D00C940000E1E6F0E080E8808381E0808316
S11300E085B7806885BF85B7806885BF0E94FD009D
S11300F08CE00E949B01279A3F9A269A6E988498D6
S113010080988AB1807F8AB98BB18F608BB9EFE711
S1130110F0E0808181608083EEE7F0E0808180619F
S11301208083E0ECF0E08081826080838081816064
S11301308083A3ECB0E08C918D7F8C938C918E7F27
S11301408C9380818068808380818F7B8083808191
S11301508062808380818F7E80838C9180648C9385
S11301608C9180688C938C9188608C9388EC8093BC
S1130170D100E1ECF0E08081877F808380818B7FF8
S11301808083808182608083808181608083EEE6C9
S1130190F0E080818160808383E886BDE9E6F0E059
S11301A0808182608083E89A808188608083E99A74
S11301B0808180628083EA9A808180688083EB9A60
S11301C078940895009769F020E030E0EFECF7E0D0
S11301D03197F1F700C000002F5F3F4F821793075C
S11301E0A9F708952D9A85E090E00E94E2002D98E9
S11301F085E090E00E94E200089584B1806384B9B0
S113020084B18F6084B982E390E00E94E20085B1FA
S11302108F7C85B985B1837F85B985B1836085B9C4
S11302200E94F20085B1837F85B985B1836085B969
S11302300E94F20085B1837F85B985B1836085B959
S11302400E94F20085B1827F85B9299A0E94F2004A
S113025085B1827F85B9299A0E94F2002B9A85B1D3
S1130260887F85B90E94F20085B1807F85B90E949C
S1130270F2002B9A85B1887F85B90E94F20085B17E
S1130280807F85B90E94F20085B1817F85B9289A63
S11302900E94F20085B1807F85B90E94F20085B189
S11302A0837F85B985B1836085B90E94F20085B1E9
S11302B0807F85B90E94F20085B18F6085B90E9464
S11302C0F2000895CF93C82F2C9A882314F42B9A04
S11302D001C02B98C6FF02C02A9A01C02A98C5FF04
S11302E002C0299A01C02998C4FF02C0289A01C0FB
S11302F028980E94F20081E090E00E94E200C3FF8F
S113030002C02B9A01C02B98C2FF02C02A9A01C0D6
S11303102A98C1FF02C0299A01C02998C0FF02C0CF
S1130320289A01C028980E94F20081E090E00E947F
S1130330E200CF910895CF93C82F2C98882314F40A
S11303402B9A01C02B98C6FF02C02A9A01C02A9892
S1130350C5FF02C0299A01C02998C4FF02C0289A87
S113036001C028980E94F20081E090E00E94E2001F
S1130370C3FF02C02B9A01C02B98C2FF02C02A9A65
S113038001C02A98C1FF02C0299A01C02998C0FF60
S113039002C0289A01C028980E94F20081E090E0EF
S11303A00E94E200CF9108950E946A00CFECD0E051
S11303B000ED10E085EC0E949B0181E60E94620141
S11303C080910601853610F4880F88838091050199
S11303D0853680F7880FF8018083ECCF1F920F9247
S11303E00FB60F9211244698479885B1805885B965
S11303F02FEF84E39CE0215080409040E1F700C05F
S11304000000F3CF1F920F920FB60F9211248F9317
S11304109F9380910601843618F48F5F80930601C0
S113042081E08093040185B5836085BD8CEB92E007
S113043090930101809300019F918F910F900FBEC3
S11304400F901F9018951F920F920FB60F921124C0
S11304508F939F9380910601882319F08150809394
S1130460060182E08093040185B5836085BD8CEB31
S113047092E090930101809300019F918F910F90DE
S11304800FBE0F901F9018951F920F920FB60F92E8
S113049011248F939F9380910501843618F48F5F04
S11304A08093050183E08093040185B5836085BD55
S11304B010920301109202018CEB92E090930101DF
S11304C0809300019F918F910F900FBE0F901F900A
S11304D018951F920F920FB60F9211248F939F932A
S11304E080910501882319F081508093050184E0EF
S11304F08093040185B5836085BD8CEB92E0909375
S11305000101809300019F918F910F900FBE0F9076
S11305101F9018951F920F920FB60F9211242F93CC
S11305203F938F939F9380910201909103010196D1
S11305309093030180930201489929B1209100010D
S1130540309101012817390708F044C08091040153
S1130550823099F018F4813031F02DC08330B9F035
S11305608430F9F028C048992BC080910601843664
S113057038F58F5F8093060123C0499921C080918B
S113058006018823E9F081508093060119C04A9935
S113059017C080910501843698F48F5F809305011C
S11305A00FC04B990DC080910501882349F08150FB
S11305B08093050105C085B58C7F85BD109204012B
S11305C082E390E090930101809300011092030173
S11305D01092020183E886BD9F918F913F912F91E4
S11105E00F900FBE0F901F901895F894FFCF48
S9030000FC
