S01800004D6F746F72616E737465756572756E672E737265634A
S11300000C9456000C9460000C9460000C946000F6
S11300100C9460000C9460000C9460000C946000DC
S11300200C9460000C9460000C9460000C946000CC
S11300300C9460000C9460000C9460000C946000BC
S11300400C9460000C9460000C9460000C946000AC
S11300500C9460000C9460000C9460000C9460009C
S11300600C9460000C9460000C9460000C9460008C
S11300700C9460000C9460000C9460000C9460007C
S11300800C9460000C9460000C9460000C9460006C
S11300900C9460000C9460000C9460000C9460005C
S11300A00C9460000C9460000C94600011241FBE3A
S11300B0CFEFDAE0DEBFCDBF0E94B7010C944A0255
S11300C00C940000E1E6F0E080E8808381E0808326
S11300D085B7806885BF85B7806885BF0E94D100D9
S11300E08CE00E946F013F9A3E9A8098ECE7F0E022
S11300F080818F7780838081806480838081806227
S113010080838081807E8083EBE7F0E080818F7D37
S11301108083EAE7F0E08081866C8083E0ECF0E0A5
S1130120808182608083A3ECB0E08C918D7F8C937E
S11301308C918E7F8C9380818F7780838081806483
S1130140808388EC8093D10084E68093CF00E1EC37
S1130150F0E08081877F808380818B7F80838081B2
S1130160826080838081816080830895009769F034
S113017020E030E0EFECF7E03197F1F700C0000049
S11301802F5F3F4F82179307A9F708955D9A85E083
S113019090E00E94B6005D9885E090E00E94B60071
S11301A008958AB180638AB98AB18F608AB982E37B
S11301B090E00E94B6008BB18F7C8BB98BB1837FAA
S11301C08BB98BB183608BB90E94C6008BB1837FDE
S11301D08BB98BB183608BB90E94C6008BB1837FCE
S11301E08BB98BB183608BB90E94C6008BB1827FBF
S11301F08BB9599A0E94C6008BB1827F8BB9599AE8
S11302000E94C6005B9A8BB1887F8BB90E94C6009E
S11302108BB1807F8BB90E94C6005B9A8BB1887FBB
S11302208BB90E94C6008BB1807F8BB90E94C60037
S11302308BB1817F8BB9589A0E94C6008BB1807FA5
S11302408BB90E94C6008BB1837F8BB98BB183605D
S11302508BB90E94C6008BB1807F8BB90E94C60007
S11302608BB18F608BB90E94C6000895CF93C82FBD
S11302705C9A882314F45B9A01C05B98C6FF02C0A1
S11302805A9A01C05A98C5FF02C0599A01C0599898
S1130290C4FF02C0589A01C058980E94C60081E069
S11302A090E00E94B600C3FF02C05B9A01C05B9855
S11302B0C2FF02C05A9A01C05A98C1FF02C0599A9B
S11302C001C05998C0FF02C0589A01C058980E94B2
S11302D0C60081E090E00E94B600CF910895CF93CC
S11302E0C82F5C98882314F45B9A01C05B98C6FFFE
S11302F002C05A9A01C05A98C5FF02C0599A01C057
S11303005998C4FF02C0589A01C058980E94C60068
S113031081E090E00E94B600C3FF02C05B9A01C076
S11303205B98C2FF02C05A9A01C05A98C1FF02C02A
S1130330599A01C05998C0FF02C0589A01C05898F0
S11303400E94C60081E090E00E94B600CF9108951B
S1130350CF93DF93EC018881882331F021960E94AA
S1130360360189918111FBCFDF91CF910895CF930D
S1130370DF93CDB7DEB764970FB6F894DEBF0FBE38
S1130380CDBFE1E6F0E080E8808381E0808385B73B
S1130390806885BF85B7806885BF0E94620090E051
S11303A00AE710E00F2EF8E7AF2EB12CF02D0F2E38
S11303B0F9E7CF2ED12CF02D0F2EFFEC8F2E912CA0
S11303C0F02DE12CF801808186FDFCCFF5018081C0
S11303D0F601F080F6949F1511F1FBE1FF1518F476
S11303E085EE8F0D01C08E2D982F990FF401908307
S11303F04AE0BE016F5F7F4F90E00E94150281E0EA
S11304000E946F01CE0101960E94A801FFEF21EE28
S113041084E0F15020408040E1F700C00000F80182
S11304208081806480839F2DCDCFBB274A3031F4F7
S1130430992322F4BDE2909581959F4F0C9421025B
S1130440BB27FB015527AA27880F991FAA1FA417AA
S113045010F0A41B83955051B9F7A05DAA3308F09E
S1130460A95DA193009779F7B111B1931192CB01D2
S11304700C943A02DC01FC01672F71917723E1F7B8
S1130480329704C07C916D9370836291AE17BF075D
S10B0490C8F30895F894FFCFAE
S9030000FC
